:020000040000FA
:103C80009E308A004A2E23008D011E308A002000BB
:103C90008D1A3B2E30309800230090309D00263046
:103CA0009E00210023009F152100783099002300F9
:103CB0001D12190819082000970196011110C42639
:103CC0001814C426181011185C2E160823009B0027
:103CD0002000170823009C0023001D1620308400BC
:103CE00000308500CB270F3A031D572E0F30C32716
:103CF000CB270F3A0319762E0008043A0319892EB0
:103D00000008053A031D852ECB27840A841F782ED0
:103D1000572E21000403A300A303203084000030A9
:103D20008500A001A1010008CD26840A0408230211
:103D3000031D932E20080002031D572E840A21081C
:103D40000002031D572EA001A101200022088400BB
:103D500021082300910004089200263084000030DE
:103D6000850020000A3020020318572E2008820701
:103D7000EA2EF22E112F2A2F512F862F972FA72FA1
:103D800000001E308A003B2E6400111808008E1BB4
:103D9000C52E8E1FC92E080021002106A200200872
:103DA000A1002208A000200E0F39A006200EF03935
:103DB000A106A00E0310200D0318013EA106E03954
:103DC000A106A00EA0060800C00101050102409E48
:103DD00000001B010630A500A6012300E43091007D
:103DE0009E3092000627B327CD260408B327CD26A0
:103DF0002300910A0319920A20000130A502031C36
:103E0000A60326082504031DF22EAA2F23009517CA
:103E1000151400000000230014088400130820007B
:103E200008000627CC260408CD262300910A031992
:103E3000920A11081F39031D112FAF2720000130EE
:103E4000A502031CA60326082504031D112FAB2F72
:103E5000402E402E23001F309205E03091051E3089
:103E60001202403003191102031C422F20301202AB
:103E70000030031911020318422F23009501462F29
:103E8000402E402E230094309500D7272300203069
:103E90009102031C92032000A50B2A2FA72F402E6E
:103EA000402E23001F309205F83091051E3012027B
:103EB000403003191102031C692F20301202003018
:103EC000031911020318692F230095016C2F402E4E
:103ED000402E23008430950023000008840A9300BC
:103EE00095161108073A0739031995120008840A34
:103EF0009400D6272300910A0319920A073011056E
:103F0000031D6C2F2000A50B512FA72F2300950117
:103F100015141518892F230013082300910A03197B
:103F2000920AB327CD262000A50B862FAA2F840A3C
:103F3000000823009300230004309500D72795182C
:103F40009F2F2300910A2000A50B972FA72F200851
:103F5000B327CD26AF2720000430C3276C2E2100C5
:103F60002008B32721082100A3000F3A0319C02F0E
:103F70002308043A0319C02F2308053A031DC22F52
:103F80000530C327230820006400111EC52F23001D
:103F90009A002100080020006400911ECD2F23000C
:103FA0001908200080000800402E402E23006400E5
:103FB00055309600AA3096009514000000000800C5
:00000001FF
